:020000040800F2
:10000000906B00209D0100082B1F0008191C0008A0
:10001000291F00082B0300084539000800000000D4
:10002000000000000000000000000000E31F0008C6
:100030002D03000800000000E11F0008E51F000874
:1000400049390008B7010008B7010008B7010008E6
:10005000B7010008B7010008B7010008B7010008A0
:10006000B7010008B7010008B7010008B701000890
:10007000B7010008B7010008B7010008B701000880
:10008000B7010008B7010008B7010008B701000870
:10009000B7010008B7010008B7010008B701000860
:1000A000B7010008B7010008B7010008B701000850
:1000B000B7010008E9200008B7010008B7010008EF
:1000C000B7010008B7010008B7010008B701000830
:1000D000B7010008D9240008E5240008F12400082D
:1000E000B7010008B7010008B7010008B701000810
:1000F000B7010008B7010008B7010008B701000800
:10010000B7010008B7010008B7010008B7010008EF
:1001100021220008B7010008B7010008B701000854
:10012000B7010008B7010008B7010008B7010008CF
:10013000B7010008B7010008B7010008B7010008BF
:10014000B7010008B7010008B70100084D1F0008FB
:10015000B7010008B7010008B7010008B70100089F
:10016000B7010008B7010008B7010008B70100088F
:10017000B7010008B7010008B7010008000000003F
:10018000B7010008B7010008DFF80CD000F090F8C4
:1001900000480047693D0008906B002006488047F2
:1001A00006480047FEE7FEE7FEE7FEE7FEE7FEE75C
:1001B000FEE7FEE7FEE7FEE795200008890100085C
:1001C0002DE9F05F0546002092469B46884606468C
:1001D000814640241BE0284641464746224600F01F
:1001E00057F853465A46C01A914110D31146184643
:1001F000224600F03EF82D1A67EB01084F462246D2
:100200000120002100F035F817EB00094E41201EB7
:10021000A4F10104DFDC484631462A464346BDE8E6
:10022000F09F40EA01039B0703D009E008C9121FB1
:1002300008C0042AFAD203E011F8013B00F8013BA0
:10024000521EF9D2704730B50B46014600202022DD
:10025000012409E021FA02F59D4205D303FA02F5D3
:10026000491B04FA02F52844151EA2F10102F1DC33
:1002700030BD202A04DB203A00FA02F1002070474A
:100280009140C2F1200320FA03F3194390407047D4
:10029000202A04DB203A21FA02F00021704721FADB
:1002A00002F3D040C2F12002914008431946704742
:1002B000064C074D06E0E06840F0010394E80700B3
:1002C00098471034AC42F6D3FFF762FF283F00088E
:1002D000483F000870B58C1810F8015B15F0070353
:1002E00001D110F8013B2A1106D110F8012B03E0CF
:1002F00010F8016B01F8016B5B1EF9D12B0705D4D7
:100300000023521E0DD401F8013BFAE710F8013B1F
:10031000CB1A921C03E013F8015B01F8015B521E3B
:10032000F9D5A142D8D3002070BDFEE7704781689F
:10033000002905D000680068C16841F02001C16053
:10034000704738B504004AD094F82800002846D0F9
:1003500020680168C9684FF00005890625D56946FF
:1003600003F0DAFAD8B9A068C8B19DF80010E28AA3
:100370008154E08A401C81B2E182E089814200D34D
:10038000E582618B814203D2608B401C608301E077
:10039000E08A2083616A11B19DF8000088472068D7
:1003A000C18D11B9202180F83A1022681068C16807
:1003B000090614D5A18A99B1618A6068415C10462A
:1003C00003F0B7FA00280AD1608A401C80B260822C
:1003D000A189884200D36582A08A401EA08238BDD0
:1003E000C16821F08001C160206A0028F7D001B007
:1003F000BDE83040004770B50446C06915460E465A
:1004000000B1804746B1606830B1A08AA189284414
:10041000884203D9022070BD012070BD002017E082
:10042000315C238A6268D154012181F31088218ACA
:10043000491C89B22182A289914201D300212182E3
:10044000A18A491CA182002181F31088401C80B23E
:10045000A842E5D320680068C16841F08001C1600E
:10046000002070BD13B5012201A9FFF7C4FF1CBD18
:10047000F0B50DF1140E9EE8F01080E80E008481B6
:10048000C581002101824182C18201834183818231
:1004900000F11C0E01218EE8C01080F82810F0BD7C
:1004A00070B54379012B1AD00126467102230371DE
:1004B00005682C6840F6FE7393409C43D1E90031F7
:1004C0000B43934023432B6001680B68C024944086
:1004D000A3430B60067100214171084670BD0220E4
:1004E00070BD70B5040003D02079002510B105E07F
:1004F000012070BD6571204600F008F802202071CF
:10050000256101202071002070BD000000B5006849
:100510000C4987B0884212D10B480021026842F092
:1005200000520260006800F00050059030200090FA
:100530000320CDE901016946044800F01BF807B02B
:1005400000BD00000074004040380240000002403E
:1005500070B5044600F0F0F80546601C02D004486F
:100560000078044400F0E8F8401BA042FAD370BDC4
:10057000040000202DE9F84FDFF87CB100224FF095
:1005800001084FF0030A4FF00F090BF1040E00BFF2
:100590000B6808FA02F42340A3426ED14D68022D85
:1005A00001D0122D0ED1D50800EB850CDCF82050BF
:1005B0005607F70E09FA07F6B5430E69BE402E43FB
:1005C000CCF82060066855000F790AFA05FC07F0A0
:1005D000030726EA0C06AF40374307604E68012E3A
:1005E00005D0022E03D0112E01D0122E0ED1866816
:1005F000CF6826EA0C06AF40374387604668A643BB
:100600000C79C4F30014944034434460C6688C6889
:1006100026EA0C06AC403443C4604C68E40065D55F
:10062000364C256845F480452560246822F0030592
:1006300004F480440094324C2E19D6F808489507EB
:100640002F0F09FA07F5AC432E4DA84201D1002522
:1006500024E02D4DA84201D101251FE02B4DA842D9
:1006600001D102251AE02A4DA84201D1032515E047
:10067000284DA84202D1042510E037E0264DA842BB
:1006800001D105250AE0254DA84201D1062505E046
:10069000234DA84201D1072500E00825BD40254390
:1006A000C6F80858DBF800405D464E689C43F603E8
:1006B00000D51C432C60DEF8004075464E689C4314
:1006C000B60300D51C432C600B4D08352C684E68D2
:1006D0009C43F60200D51C432C60074D0C352C685A
:1006E0004E689C43B60200D51C432C60521C102A55
:1006F000FFF44EAFBDE8F88F003C014044380240A3
:1007000000300140000002400004024000080240A6
:10071000000C024000100240001402400018024089
:10072000001C02400069084000D0012070470AB157
:10073000816170470904FBE7014880687047000049
:1007400004000020024881680278114481607047EB
:10075000040000200B4810B5016841F400710160ED
:10076000016841F480610160016841F480710160B9
:10077000032000F081F8002000F006F800F024F8D3
:10078000002010BD003C024070B50D4D04464FF4F2
:100790007A712878B1FBF0F00A490968B1FBF0F0F2
:1007A00000F0A1FF48B9102C07D200222146501EAC
:1007B00000F042F800206C6070BD012070BD0000A8
:1007C000040000200000002010B5032000F054F8C1
:1007D000002211466FF00B0000F02EF800221146A7
:1007E0006FF00A0000F028F8002211466FF00900AF
:1007F00000F022F800221146501F00F01DF80022E0
:100800001146101F00F018F800221146901E00F04B
:1008100013F80022BDE810401146501E00F00CB83D
:1008200000F01F02012191404009800000F1E0200A
:10083000C0F8001170470000F0B40E4B1B680C4666
:10084000C3F30223C3F10705042D00D90425191DA4
:10085000072901D2002300E0DB1E012606FA05F17C
:10086000491E214099409E40761E16403143F0BCFF
:1008700001F05CBB0CED00E0064900F007020868DF
:100880004FF6FF03184040EA0220034A1043086075
:10089000704700000CED00E00000FA0500684162BE
:1008A00000207047F0B500680023446A31B1856AC2
:1008B0004FF4827604EB15444D1E0AE044EA0241EF
:1008C00081620FE006EB8307C7595B1C04EB1744FA
:1008D000DBB2AB42F6DB4FF4807303EB810144EAF9
:1008E000024242500020F0BDD0F8EC0302F0A8B85C
:1008F000C1EBC10200EB8202D0F8EC03526C02F0B3
:1009000015B8C1EBC10200EB8202D0F8EC03D2F8BB
:10091000042202F060B8D0F8EC0302F093B810B5EE
:1009200004460A460B0601F07F00C0EBC00104EB51
:10093000810101D5383101E001F5FC710870D00961
:10094000487094F8B803012809D0012084F8B8034E
:10095000206802F0D3FB002084F8B80310BD022009
:1009600010BD70B50A460446090602F07F0005D5A1
:10097000C0EBC00104EB8101383105E0C2EBC201DC
:1009800004EB810101F5FC7100258D700870D00920
:10099000487094F8B803012809D0012084F8B803FE
:1009A000206802F08CFD84F8B853002070BD02204E
:1009B00070BD70B504460D460E0601F07F00C0EB19
:1009C000C00104EB810101D5383101E001F5FC7172
:1009D000ED0908704D708A60CB7000D0C88000258A
:1009E000022B00D10D7194F8B803012809D0012021
:1009F00084F8B803206802F0D5FA284684F8B85382
:100A000070BD022070BD70B50C4601F07F05C5EBCE
:100A1000C50100EB8101C1F80C32C1F804220023AA
:100A2000C1F8103281F8F93181F8F851036901F504
:100A3000FC71012B00D10A616206027C006803D0C0
:100A400002F09EFD002070BD02F07AFCFAE770B55E
:100A50000D460446090605F07F0005D5C0EBC00130
:100A600004EB8101383105E0C5EBC50104EB8101E0
:100A700001F5FC7101228A700870E809487094F849
:100A8000B803012807D084F8B823206802F049FD94
:100A9000680602D007E0022070BD217C04F56F7269
:100AA000206802F0EDFC002084F8B80370BD70B53A
:100AB0000C4601F07F05C5EBC50100EB8101CB645D
:100AC0004A6400230B65012381F8393001F8385F4F
:100AD0000369012B00D10A616206027C006803D021
:100AE00002F04EFD002070BD02F02AFCFAE7000083
:100AF0002DE9F84F044600680026054602F094FEF2
:100B0000002875D1206802F0B8FE002870D0206857
:100B100002F0B3FE800704D52068416901F00201AC
:100B20004161206802F0A9FE010304F56F704FF0E7
:100B3000010B4FF0000A00904DD5206802F07FFEB7
:100B4000074646E0F80742D0F1B2206802F08DFE79
:100B50008046C00728D005EB4612C2F808BB2069C2
:100B6000012811D1C6EBC60004EB8001D2F8102B8E
:100B7000D1F80002C2F31202821AC1F81022D1F891
:100B800004221044C1F80402F1B22046FFF7B9FE76
:100B90002069012808D13EB9D4F80C0220B9206898
:100BA0000121009A02F06CFC5FEA087007D520462C
:100BB00000F0DCFA05EB46110820C1F8080B5FEAEB
:100BC000C86004D505EB46111020C1F8080B7F085A
:100BD000761C002FB6D1206802F04FFE40034FF084
:100BE00040095ED5206802F023FE0746002656E045
:100BF000D2E1F80751D0F1B2206802F027FE80461A
:100C0000C00724D0D5F834280BFA06F08243C5F883
:100C1000342805EB4610C0F808B92069012807D12F
:100C2000C6EBC60004EB8000D0E910121144416409
:100C3000F1B22046FFF75CFE2069012807D136B9E2
:100C4000E06C20B920680121009A02F019FC5FEAEB
:100C5000087004D505EB46110820C1F808095FEAC1
:100C6000C86004D505EB46111020C1F808095FEAF9
:100C7000486003D505EB4611C1F808995FEA887012
:100C800004D505EB46110220C1F808095FEA0860A7
:100C900003D53146204601F05FF97F08761C002F0E
:100CA000A7D1206802F0E9FD00280DDAD5F8040884
:100CB00020F00100C5F80408204600F03DFA216844
:100CC000486900F000404861206802F0D6FD000548
:100CD0000BD5D5F80808C00702D0204600F062FA0C
:100CE0002068416901F400614161206802F0C5FD9E
:100CF000C0044CD5D5F8040820F00100C5F804085C
:100D00001021206802F060FD0020FF2107E000BFF5
:100D100005EB4012C2F80819C2F8081B401C6268B3
:100D20008242F5D84FF0FF30C5F81808D5F81C08F6
:100D300040F00110C5F81C08206B60B1D5F884089C
:100D400040F00B00C5F88408D5F8440840F00B00CB
:100D5000C5F844080BE0D5F8140840F00B00C5F8BE
:100D60001408D5F8100840F00B00C5F81008D5F8A5
:100D7000000820F4FE60C5F80008217C2068009A75
:100D800002F07EFB2168486900F4805048612068C9
:100D900002F073FD80047DD5206802F043F92068DD
:100DA000C16821F47051C160206802F01FFD78B164
:100DB0000320C4F81490E06000F0A4FA7749784A60
:100DC000014491420AD22068C16841F4705158E050
:100DD0004FF40070C4F80CA0606136E07149724AAB
:100DE0000144914204D22068C16841F4605148E056
:100DF0006E496F4A0144914204D22068C16841F4AF
:100E000050513EE06B496C4A0144914204D2206843
:100E1000C16841F4405134E06849694A0144914253
:100E200004D22068C16841F430512AE06549664A1D
:100E30000144914204D22068C16841F4205120E06D
:100E40006249421862498A4204D22068C16841F46A
:100E5000105116E05F49604A0144914204D2206873
:100E6000C16841F400510CE05C4908445C49884287
:100E70002068C16803D241F4E05102E00AE041F485
:100E8000C051C160204600F047F92068416901F473
:100E900000514161206802F0F0FCC00636D521689F
:100EA000886920F010008861D5F8208008F00F00D4
:100EB000C0EBC00004EB8007C8F3434007F5FC77A4
:100EC000022802D0062812D01BE047F6F07018EA7C
:100ED000000F16D0C8F30A1290462846F96802F0AF
:100EE000D0FCF8684044F860B869404408E0082243
:100EF0002846009902F0C5FCB969C8F30A100844F5
:100F0000B8612068816941F010018161206802F0B8
:100F1000B4FC000707D5204600F012F920684169AB
:100F200001F008014161206802F0A7FCC00208D569
:100F3000F1B2204600F056F82068416901F48011B2
:100F40004161206802F099FC800208D5F1B2204688
:100F500000F04CF82068416901F4001141612068FB
:100F600002F08BFC400007D52046FFF7BDFC20684F
:100F7000416901F080414161206802F07EFC400738
:100F80000AD520684568680702D52046FFF7C3FCEC
:100F90002068416829434160BDE8F88F405327FF2E
:100FA00000350C00401E1BFF40420F0000DC0BFF11
:100FB000804F1200808CF9FE20D6130060B6E5FE4B
:100FC00060E3160000D3CEFE40771B00C05BB3FE8B
:100FD000C091210000CA91FE20753800E05459FEEE
:100FE000E09C4100D0F8EC0301F086BDD0F8EC03A2
:100FF00001F084BDF0B58BB004004FF0000556D071
:10100000032084F8B903204600F054F8206802F069
:1010100091F904F1100128220F466846FFF701F903
:1010200094E80F0002F018F80021206802F039FC63
:1010300001260020C5EBC50104EB810181F8396070
:1010400001F8385FCD80C8708860C8606D1C486149
:101050000F2DEFD300214FF4827300BFC1EBC1020B
:1010600004EB820203EB810582F8F90182F8F811A2
:10107000D18782F8FB01C2F80002C2F80402C2F86C
:101080000C0222685051491C0F29E7D32822394607
:101090006846FFF7C6F894E80F0002F0ABF884F852
:1010A000B963206802F09AF800200BB0F0BD01206F
:1010B000FBE7000000B5006887B0B0F1A04F25D174
:1010C0004FF4C050009002200190002002900320B5
:1010D00003900A20049069460D48FFF74BFA0D482B
:1010E000016841F0800101600A481030016841F454
:1010F000804101600068002200F4804005901146A4
:101100004320FFF799FB4320FFF78AFB07B000BDA0
:10111000000002403438024010B50446C068012186
:1011200000B90021D4F8EC0301F03EFDD4F8EC0343
:10113000BDE8104001F007BDD0F8EC0301F022BD7E
:10114000D0F8EC0301F024BD10B5044690F8B803C4
:10115000012809D0012084F8B803206802F0B7FB09
:10116000002084F8B80310BD022010BDD0F8EC2395
:1011700000F56F71104601F02ABD10B5044690F8D5
:10118000B80301280CD0012084F8B803206802F0CD
:1011900019F8206802F002FB002084F8B80310BDA3
:1011A000022010BD10B50446D0F8EC0301F05CFD40
:1011B0002068D0F8001E41F00101C0F8001E206A2E
:1011C000002804D00248016841F00601016010BD0A
:1011D00010ED00E02DE9F0470E46050065D0DFF880
:1011E0001481D8F80000F7B200F00F00B04207D227
:1011F00088F80070D8F8000000F00F00B04254D119
:1012000028683D4C810712D5400703D5206840F47B
:10121000E05020602878000703D5206840F4604043
:1012200020602068A96820F0F0000843206028783A
:10123000C0072DD0304968680839012812D002282B
:1012400013D0032811D00968890700292DDA2168F5
:1012500021F0030101432160FFF76EFA814641F25C
:10126000883A0EE009688903EFE709688901ECE72D
:10127000FFF762FAA0EB0901514502D90320BDE84E
:10128000F0872068696800F00C00B0EB810FEFD1A7
:10129000D8F80010404601F00F01B14207D907709D
:1012A000006800F00F00B04201D00120E7E7287885
:1012B000400705D52068E96820F4E0500843206025
:1012C0002878000706D52068296920F4604040EAA4
:1012D000C100206000F03CF82168084AC1F3031106
:1012E000515CC840064908600020FFF74DFA002015
:1012F000C5E70000003C024008380240103F0008EB
:101300000000002001480068704700000000002035
:101310000448054900680968044AC1F38221515C08
:10132000C84070470000002008380240203F0008F5
:101330000448054900680968044AC1F34231515C18
:10134000C84070470000002008380240203F0008D5
:10135000154810B5006810F00C02144813D0411065
:10136000042A0FD0082A0ED10F4C241F22682368AC
:1013700002F03F025B0207D52068C0F38810A0FB93
:10138000010106E0084610BD2168C1F38811A1FBE8
:1013900000010023FEF714FF2168C1F30141491C3D
:1013A0004900B0FBF1F010BD083802400024F40001
:1013B0002DE9F84F050076D02878DFF8F8B2BE4C5A
:1013C000C00749D0DBF800105846C1F3810101295C
:1013D00008D00068C0F3810002280AD1201D0068EF
:1013E000400206D52068800336D568680028E2D020
:1013F00032E06868B0F5803F10D0B0F5A02F2068CB
:1014000010D020F480302060206820F480202060FC
:101410006868A0B1FFF790F906460CE0206840F438
:101420008030F4E740F480202060F7E7FFF784F98C
:10143000801B642873D820688003F7D50CE0FFF781
:101440007BF9064605E000BFFFF776F9801B6428AC
:10145000F0D820688003F7D42878DFF8608280070E
:101460004FF000093ED5DBF80010584611F00C0F84
:1014700009D00068C0F3810002280BD18D48001FFD
:101480000068400206D42068800715D5E868012866
:1014900009D111E0E868B8B10120C8F80000FFF7F1
:1014A0004BF9064605E002E1FFF746F9801B0228EA
:1014B000C0D820688007F7D52068296920F0F80097
:1014C00040EAC10020600DE0C8F80090FFF734F951
:1014D000064604E0FFF730F9801B02281FD8206879
:1014E0008007F7D42878000722D5724E74486969BE
:1014F0006C3671B101210160FFF71EF9074604E067
:10150000FFF71AF9C01B022809D830688007F7D501
:101510000EE0C0F80090FFF70FF9074605E083E002
:10152000FFF70AF9C01B02287ED830688007F7D47D
:101530002878400768D5DFF87CA100270AF1380A2F
:10154000DAF80000C0000BD4DAF8001041F0805146
:10155000CAF80010DAF80000012700F0805000906F
:10156000584E3068C00510D4306840F48070306048
:10157000FFF7E2F8009005E0FFF7DEF80099401A67
:10158000022851D83068C005F6D54A4EA86868369A
:1015900001280FD00528306810D020F001003060FD
:1015A000306820F004003060A868B8B1FFF7C4F8D4
:1015B00000900FE0306840F00100F4E740F00400D4
:1015C0003060F7E7FFF7B8F80099411A41F2883028
:1015D000814264D830688007F4D50EE0FFF7ACF89C
:1015E000009007E0FFF7A8F80099411A41F288300F
:1015F000814254D830688007F4D42FB1DAF8001053
:1016000021F08051CAF80010A869C0B3DBF80010BF
:10161000C1F3810102294AD00228484607D0C8F800
:101620006000FFF789F800E039E005463AE04746F8
:10163000C8F86000FFF780F8064604E0FFF77CF882
:10164000801B02282BD820688001F7D4D5E9070138
:101650000843A96A1C4A490802EB01416A6A41EA47
:101660008211084395F82C1040EA01611148001FCF
:10167000016001203866FFF75FF8054605E014E0D9
:10168000FFF75AF8401B022809D820688001F7D5D7
:101690000BE000BFFFF750F8401B022802D90320DF
:1016A000BDE8F88F20688001F4D40020F8E701201D
:1016B000F6E70000083802400038024000004742C8
:1016C000800E4742007000400000FFFF4FF0E02115
:1016D0000428086903D020F004000861704740F036
:1016E0000400FAE7704710B5401EB0F1807F01D3C7
:1016F000012010BD4FF0E02460610F21601700F061
:1017000015FC0020A06107202061002010BD10B54D
:10171000FFF7E8FF10BD7047704730B590F83820EC
:10172000012A20D0012280F83820022380F83930A5
:1017300003685C6824F070045C6003685C680D6892
:101740002C435C6003689C6824F080049C60036800
:101750009C6849680C439C6080F83920002180F81F
:101760003810084630BD022030BD10B5040003D04B
:1017700094F8390010B107E0012010BD002084F872
:101780003800204600F00CF8022084F83900211DB2
:10179000206800F0AFFC012084F83900002010BD63
:1017A00008B500680B49884212D10B48016841F026
:1017B000020101600068002200F002000090114662
:1017C0001D20FFF739F8BDE808401D20FFF728B8B5
:1017D00008BD000000040040403802400168CA68AB
:1017E00042F00102CA600068016841F00101016035
:1017F0000020704770B5044690F83800012817D0D3
:10180000012584F83850022084F839002068826865
:1018100022F0770222F47F4282600868502837D095
:101820000DDC202859D005DC88B3102841D151E0C7
:10183000022070BD302853D040283AD13FE06028C4
:101840002ED070280BD0B0F5805F03D0B0F5005FCC
:101850002FD110E02068816821F0070115E0CB68E6
:10186000D1E90121206800F0A5FC2168886840F0DA
:10187000770088601DE0CB68D1E90121206800F085
:1018800099FC2068816841F48041816011E01EE08C
:10189000CA684968206800F09FFC5021206806E073
:1018A000CA684968206800F0A8FC6021206800F040
:1018B0008BFC84F83950002084F8380070BDCA6869
:1018C0004968206800F088FC40212068EFE700218B
:1018D0002068ECE710212068E9E720212068E6E78E
:1018E00030212068E3E7704770B50446006801695D
:1018F0004FF00005C943890715D4C168C94389075A
:1019000011D4E91E016101202076206880698007DA
:10191000204602D0FFF7E7FF04E000F098F82046E9
:1019200000F096F8257620680169C943490717D465
:10193000C168C943490713D46FF004010161022053
:1019400020762068806910F4407F204602D0FFF79F
:10195000CAFF04E000F07BF8204600F079F8257615
:1019600020680169C943090716D4C168C94309073A
:1019700012D46FF008010161042020762068C0694C
:101980008007204602D0FFF7AEFF04E000F05FF8CA
:10199000204600F05DF8257620680169C943C90634
:1019A00017D4C168C943C90613D46FF0100101618F
:1019B000082020762068C06910F4407F204602D0BD
:1019C000FFF791FF04E000F042F8204600F040F8F5
:1019D000257620680169C943C90708D1C168C94390
:1019E000C90704D1891E0161204600F033F8206840
:1019F0000169C943090609D4C168C943090605D468
:101A00006FF0800101612046FFF785FE20680169C3
:101A1000C943490609D4C168C943490605D46FF0D2
:101A200040010161204600F025F820680169C943A2
:101A300089060BD4C168C943890607D46FF0200119
:101A400001612046BDE87040FFF766BE70BD70477B
:101A5000704700000549884207D105480168491CC4
:101A60000160052901DB0021016070473801002079
:101A700020000020704770B5040004D094F83900AD
:101A8000002510B106E0012070BD84F838502046D2
:101A900000F022F8242084F839002068C16821F47D
:101AA0000051C160204600F0C1FB2068016921F4AB
:101AB000904101612068416921F02A01416120685B
:101AC000C16841F40051C160E563202084F8390009
:101AD00084F83A00002070BDF0B503683E483F49E5
:101AE00002250122032487B04FF44067834218D1B6
:101AF000086840F4002008600868009700F400209F
:101B000005900820CDE90340CDE9015269463448EB
:101B1000FEF730FD002211463420FEF78DFE342002
:101B20001FE0DFF8C0C007262F4863451DD12B49B1
:101B3000091D0B6843F010030B60096802AB01F04C
:101B4000100105914FF4C061CDE9001583E8540000
:101B50006946FEF70FFD002211462520FEF76CFEB8
:101B60002520FEF75DFE07B0F0BDDFF880C06345BD
:101B700017D10B6843F400330B60096802AB01F422
:101B8000003105910C21CDE9001583E85400694628
:101B9000FEF7F0FC002211462620FEF74DFE26201F
:101BA000DFE713488342DED1086840F480200860F4
:101BB0000868CDE9022400F48020CDE90460CDE975
:101BC000007569460B48FEF7D5FC00221146272018
:101BD000FEF732FE2720C4E7004C004040380240A8
:101BE0000008024000100140000002400044004094
:101BF0000048004000040240704710B501684A6880
:101C0000D243920507D48A68D243D20703D1921EE9
:101C10008A60FFF7F1FF10BDFEE700001CB5134915
:101C2000114808600846FEF75CFC18B1472110A077
:101C300001F090FE002000900246019069460B489A
:101C4000FEF72EFC18B1502109A001F083FE1022EE
:101C500069460648FEF724FC002803D0572104A05B
:101C600001F078FE1CBD0000007400402423002019
:101C70002E2E2F5372632F6461632E6300000000C9
:101C80002DE9F0412F4886B00024016841F0100191
:101C90000160016801F010010591016841F08001C7
:101CA0000160016801F080010591016841F00401C3
:101CB0000160016801F004010591016841F0010132
:101CC0000160016801F001010591016841F0020124
:101CD000016000681C4F00F002004FF6FF75059090
:101CE000002229463846FEF722FDDFF860804FF4D7
:101CF0004056002231464046FEF719FD0095012569
:101D0000CDE90154694638460394FEF733FC0F20B1
:101D1000CDE9000469460E480294FEF72BFC0096BC
:101D2000CDE90154694640460394FEF723FCA8031D
:101D3000CDE90004694640460294FEF71BFC06B05C
:101D4000BDE8F0813038024000100240000402403B
:101D50000008024010B5184886B01649016042F2EA
:101D6000CF010024C0E9011440F2E731C0E90314B7
:101D7000FFF7FBFC18B1482110A001F0EBFD4FF478
:101D80008050009069460C48FFF734FD18B14E2191
:101D90000AA001F0DFFD049404A907480594FFF7A9
:101DA000BCFC002803D0552104A001F0D3FD06B0EF
:101DB00010BD000000040040380100202E2E2F53DB
:101DC00072632F74696D2E63000000000D4810B51A
:101DD0000B4901604FF4E1314160002181600C2228
:101DE000C160C0E904128161C161FFF744FE0028AF
:101DF00005D0BDE810406D2103A001F0ABBD10BDC2
:101E0000004C0040740100202E2E2F5372632F755A
:101E1000736172742E6300000D4810B50B490160A8
:101E20004FF4E1314160002181600C22C160C0E9C2
:101E300004128161C161FFF71EFE002805D0BDE8D4
:101E40001040802103A001F085BD10BD00100140AD
:101E5000B40100202E2E2F5372632F75736172749C
:101E60002E6300000D4810B50B4901604FF49651E8
:101E70004160002181600C22C160C0E904128161CF
:101E8000C161FFF7F8FD002805D0BDE8104093219F
:101E900003A001F05FBD10BD00440040F40100202C
:101EA0002E2E2F5372632F75736172742E63000090
:101EB0000D4810B50B4901604FF4E131416000213C
:101EC00081600C22C160C0E904128161C161FFF729
:101ED000D2FD002805D0BDE81040A62103A001F0E6
:101EE00039BD10BD00480040340200202E2E2F5373
:101EF00072632F75736172742E63000010B5002237
:101F00000649074800F0C2FC0649054800F0DAFE21
:101F1000BDE81040024800F03FBF00002400002050
:101F20004C2500206C000020FEE770470907090ED1
:101F3000002806DA00F00F0000F1E02080F8141D00
:101F4000704700F1E02080F8001470470148FEF768
:101F5000CFBD0000702700202DE9F84F0F46C1EBE0
:101F6000C70100EB810582460668D5E91301441AD2
:101F7000286C3835A04200D20446E01C4FEA900895
:101F800006EB471916E0441AA868A04200D204469E
:101F9000E01C4FEA90089AF810000090A3B2FAB241
:101FA0003046E96801F0A4FCE8682044E860A869CC
:101FB0002044A861D9F8180980B2404505D9D5E96F
:101FC0000501814201D20028DDD134B90120D6F8C3
:101FD0003418B8408143C6F834180020BDE8F88FA3
:101FE0007047704710B5FEF7ADFBBDE81040FFF736
:101FF0008EBB000030B5254893B00025016841F044
:1020000080510160006800F0805011902048016804
:1020100041F4804101600068022400F48040119086
:1020200001200090000401908001CDE906400420C9
:102030000890A820CDE9090407200B906846FFF717
:10204000B7F900B1FEE70CA90F2081E831004FF489
:10205000A0500F904FF48050109005210CA8FFF76E
:10206000B9F800B1FEE7FFF74DF94FF47A71B0FB14
:10207000F1F0FFF738FB0420FFF728FB00221146A0
:10208000501EFEF7D9FB13B030BD000040380240AF
:10209000007000401048016841F4700101600F4871
:1020A000016841F0010101600C4A00210832116011
:1020B00002680B4B1A400260031D0A4A1A6002684C
:1020C00022F48022026005480C3001600249580663
:1020D000803908607047000088ED00E00038024059
:1020E000FFFFF6FE103000240148FFF7FDBB0000A3
:1020F00038010020F0B50268234B244D244E254FB3
:10210000254C4FF0804C984209D0604507D0A8423A
:1021100005D0B04203D0B84201D0A04204D122F091
:10212000700E4A6842EA0E0298421BD0604519D0F0
:10213000A84217D0B04215D0B84213D0A04211D057
:10214000164DA8420ED0164DA8420BD0154DA842F0
:1021500008D0154DA84205D0144DA84202D0144D08
:10216000A84203D122F44075CA682A4302608A68F3
:10217000C2620A688262984201D0A04201D1096914
:10218000016301214161F0BD0000014000040040F5
:1021900000080040000C00400004014000400140E5
:1021A000004401400048014000180040001C00406D
:1021B0000020004010B5846842EA032224F47F44E2
:1021C0000A432243826010BD826822F070020A43F3
:1021D00042F007018160704710B5036A046A24F079
:1021E00001040462846924F0F00444EA021423F038
:1021F0000A020A438461026210BD10B5036A23F02B
:10220000100303628369046A23F4704343EA0232D1
:1022100024F0A00343EA01118261016210BD0000B5
:102220000148FEF78EB80000CC0200202DE9F041F5
:1022300004460068016921F44052E16811430161DC
:102240002168C86849F20C6290432369A268E56975
:102250001A4363692B431A430243CA6021684869E1
:1022600020F44072A06910434861E1696425B1F52A
:10227000004F9748974A21684FF032083FD091426B
:1022800001D081427CD1FFF753F800EBC00101EB94
:10229000001061688900B0FBF1F6FFF749F800EB28
:1022A000C00101EB001061688900B0FBF1F0B0FBE8
:1022B000F5F06FF01801484306EB800108EB0110C0
:1022C000B0FBF5F000F0F006FFF732F800EBC001CC
:1022D00001EB001061688900B0FBF1F0B0FBF5F094
:1022E00006EB0016FFF724F800EBC00101EB00102D
:1022F00061688900B0FBF1F7FFF71AF8D2E091426C
:1023000001D081423DD1FFF713F800EBC00101EB92
:10231000001061684900B0FBF1F0B0FBF5F0060178
:10232000FFF706F800EBC00101EB001061684900FF
:10233000B0FBF1F7FEF7FCFF00EBC00101EB001072
:1023400061684900B0FBF1F0B0FBF5F06FF01801E7
:10235000484307EB800108EBC100B0FBF5F000F04B
:10236000F80006EB4006FEF7E3FF00EBC00101EBCF
:10237000001061684900B0FBF1F7FEF7D9FF3CE0BF
:1023800055E0FEF7C5FF00EBC00101EB00106168EE
:102390004900B0FBF1F0B0FBF5F00601FEF7B8FF25
:1023A00000EBC00101EB001061684900B0FBF1F7E0
:1023B000FEF7AEFF00EBC00101EB001061684900C1
:1023C000B0FBF1F0B0FBF5F06FF01801484307EBFC
:1023D000800108EBC100B0FBF5F000F0F80006EB5F
:1023E0004006FEF795FF00EBC00101EB00106168AD
:1023F0004900B0FBF1F7FEF78BFF00EBC00101EBEA
:10240000001061684900B0FBF1F0B0FBF5F06FF02F
:102410001801484307EB800108EBC100B0FBF5F061
:1024200000F00700216830448860BDE8F081FEF7C5
:102430006FFF00EBC00101EB001061688900B0FB89
:10244000F1F6FEF765FF00EBC00101EB00106168DB
:102450008900B0FBF1F0B0FBF5F06FF018014843D4
:1024600006EB800108EB0110B0FBF5F000F0F00680
:10247000FEF74EFF00EBC00101EB00106168890020
:10248000B0FBF1F0B0FBF5F006EB0016FEF740FFF5
:1024900000EBC00101EB001061688900B0FBF1F7AF
:1024A000FEF736FF00EBC00101EB00106168890008
:1024B000B0FBF1F0B0FBF5F06FF01801484307EB0B
:1024C000800108EB0110B0FBF5F000F00F00A9E768
:1024D00000140140001001400148FDF732BF000028
:1024E000740200200148FDF72CBF0000F802002014
:1024F0000148FDF726BF0000A002002010B5D0F86B
:10250000142252689047002010BD134610B50A46A9
:10251000002100F008FB002010BD134610B50A464C
:10252000002100F0AAFB002010BD10B50446802158
:1025300000F07AFB2046BDE81040002100F074BB9B
:1025400010B505210023C0F8F4111A46194600F011
:10255000EAFA002010BD10B502238261C0F8F43100
:10256000C26113460A46002100F087FB002010BD1F
:1025700010B504210023C0F8F4111A46194600F0E2
:102580007CFB002010BD000010B50A46024903A0E4
:1025900000F0D4F8004810BD4C23002048494420E6
:1025A000436F6E666967000012200880004870471C
:1025B0004400002010B50A46024903A000F0BEF80E
:1025C000004810BD4C23002048494420496E7465E2
:1025D000726661636500000004200880004870474F
:1025E0004000002010B50A46024903A000F0A6F8FA
:1025F000004810BD4C23002053544D6963726F6531
:102600006C656374726F6E696373000010B50A467F
:10261000024903A000F092F8004810BD4C230020AE
:1026200053544D33322048756D616E20696E746568
:10263000726661636500000010B50A46024903A096
:1026400000F07CF8004810BD4C23002030303030C2
:10265000303030303030314100000000F8B50446F1
:1026600048880D46010A08294BD2DFE801F04A04E8
:1026700009174A4A4048D4F81012207C0A6832E010
:10268000207C02260028D4F8140205D0C16A6846CE
:1026900088470146467041E0816AF8E7C0B20628E3
:1026A0002FD2DFE800F003080D12171CD4F8101227
:1026B000207C4A6817E0D4F81012207C8A6812E067
:1026C000D4F81012207CCA680DE0D4F81012207CD7
:1026D0000A6908E0D4F81012207C4A6903E0D4F8B3
:1026E0001012207C8A6969469047014616E0207CDA
:1026F00038B9D4F81402416B68468847F5E7207C66
:1027000020B129462046FFF710FFF8BDD4F8140287
:10271000016B68468847014607204870BDF80000F5
:102720000028F2D0EA88002AEFD0824200D902467F
:10273000ADF800202046FFF70EFFF8BD70B500236E
:1027400000281DD00446002502E06D1CEDB2641C7B
:102750002678002EF9D1022404EB45041480CC54D1
:102760005B1C0322CA5400245B1C06E0CA545B1C99
:10277000DAB28C54521CD3B2401C0278002AF5D134
:1027800070BDD0F81802002101730846704710B5DB
:102790000446812100F0BAF8D4F8180220B101F003
:1027A00027FA0020C4F81802002010BD2221018061
:1027B00000487047A40000200A21018000487047AB
:1027C000D400002070B50546002404230322812193
:1027D00000F096F9102001F0EDFAC5F8180218B1D2
:1027E00000210173204670BD0124FBE770B5002273
:1027F0000D78D0F81832144615F060051BD0202D46
:1028000040D14A78022A13D0032A0AD00A2A0BD0D0
:102810000B2A03D0FFF789FE022070BD887818606C
:1028200030E00122194624E04888000A586029E077
:102830000122191D1DE04D78062D04D00A2D1BD054
:102840000B2D1FD11CE04B882225B5EB132F05D192
:10285000CA884A2A00D94A220B4C09E02125B5EB47
:10286000132F05D1084CCA88183C092A00D909221F
:102870002146FFF770FE05E0012203F10801F8E7A9
:1028800088789860002070BDE000002010B580B10D
:10289000D0F8143213B10023C0F8143209B1C0F8D3
:1028A0001012012180F8FC11027000F0D7F800200E
:1028B00010BD05A001F050F805A001F04DF80AA0E8
:1028C00001F04AF8022010BD4552524F523A200002
:1028D000496E76616C696420446576696365206839
:1028E000616E646C650000000A00000010B50024F1
:1028F000D0F82002FEF735F830B1012801D00228C7
:1029000001D0022400E00124204610BD10B50024AF
:10291000D0F82002FEF703F830B1012801D00228D8
:1029200001D0022400E00124204610BD2DE9F04131
:102930001746044641B1D4F8140242698AB394F8A8
:10294000FC01032842D043E0D4F8F411002504F13F
:102950001400022933D1D0E902639E4207D9F31A49
:1029600083609AB239462046FFF7D7FD12E04068EF
:10297000B0FBF3F103FB1101A1B9984212D3D4F8D3
:10298000F81188420ED2002211462046FFF7C5FDFD
:10299000C4F8F85100231A461946204600F0C3F83F
:1029A0000DE012E0D4F81402C16829B194F8FC01DA
:1029B000032801D1204688472046FFF7C1FD94F83F
:1029C0000002012804D184F8005201E0204690471B
:1029D0000020BDE8F08170B51546044641B1D4F839
:1029E000140282693AB394F8FC01032824D025E04C
:1029F000D4F8F41104F5827003291FD1D0E9022123
:102A00008A420BD9531A83600846834200D3034697
:102A10009AB229462046FFF778FD0FE0D4F8140259
:102A2000016929B194F8FC01032801D120468847A7
:102A30002046FFF79DFD01E020469047002070BD35
:102A40000020704710B5012180F8FC11D0F8142245
:102A5000017952689047002010BD000010B5017840
:102A600059BB17490222C1F8EC03C0F820124FF0FD
:102A7000A0400860042048600020C1E90320C1E9AB
:102A80000502C86108624862C86208630846FEF72A
:102A9000B1FA20B14FF4A5710AA000F05BFF8021CC
:102AA0000748FDF7FBFE402200210548FDF7FAFE2E
:102AB000802201210248FDF7F5FE002010BD000034
:102AC000702700202E2E2F5372632F757362645F60
:102AD000636F6E662E6300000A0601F07F01D0F876
:102AE0002002C1EBC10100EB810002D590F83A0051
:102AF000704790F8FA017047002070470020704737
:102B000070B51D4613460024D0F820022A46FDF772
:102B100050FF30B1012801D0022801D0022400E08A
:102B20000124204670BD10B50024D0F82002FDF726
:102B30006AFF30B1012801D0022801D0022400E050
:102B40000124204610BD70B50022044640231146E2
:102B5000FFF7D6FF40252B46002280212046C4F8EF
:102B60001051FFF7CDFF0120256284F8FC01D4F855
:102B7000180228B1D4F814022179426820469047FF
:102B8000002070BD90F8FD1180F8FC110020704706
:102B900010B590F8FC11032904D1D0F81412C969BA
:102BA00001B18847002010BD01740020704710B5A6
:102BB0000024D0F82002FEF7C7FA30B1012801D076
:102BC000022801D0022400E00124204610BD70B587
:102BD000044600F50270054600F05FF80120C4F8D5
:102BE000F401B4F80E02C4F8F80194F8080210F0E9
:102BF0001F010AD001290DD0022910D000F0800158
:102C0000204600F011F8002070BD2946204600F053
:102C1000C8F8F8E72946204600F0AAF9F3E7294664
:102C2000204600F037F9EEE710B50024D0F8200276
:102C3000FDF70DFF30B1012801D0022801D0022498
:102C400000E00124204610BD10B50024D0F8200279
:102C5000FEF793FA30B1012801D0022801D00224F6
:102C600000E00124204610BD90F8FC1180F8FD1111
:102C7000042180F8FC110020704710B50024D0F822
:102C80002002FDF714FF30B1012801D0022801D045
:102C9000022400E00124204610BD0A7802704A7820
:102CA00042708A78CB7802EB032242800A794B7912
:102CB00002EB032282808A79C97902EB0121C1806B
:102CC0007047000010B50246002011B1C2F814127E
:102CD00010BD05A000F040FE05A000F03DFE0AA0DA
:102CE00000F03AFE022010BD4552524F523A2000E9
:102CF000496E76616C696420436C6173732068610E
:102D00006E646C65000000000A00000010B5D0F889
:102D1000142202241AB11268904700B900242046F8
:102D200010BD000070B50E461A4D89780446297012
:102D3000012928D894F8FC01022802D0032822D1C6
:102D400005E099B10320616084F8FC0109E091B1CC
:102D5000606888420AD0C1B22046FFF7CFFB2978CD
:102D600061602046FFF7D2FF02280CD02046BDE864
:102D70007040FFF7FDBB022084F8FC012046616033
:102D8000FFF7BCFBF2E731462046BDE87040FFF795
:102D9000CCBB00006800002010B5FFF755FF0020F5
:102DA00010BD2DE9F04100264B78012532460A2B53
:102DB00043D2DFE803F03C584251420805422A273B
:102DC000FFF74CFC63E004468888C8B9C888B8B9E6
:102DD000887800F07F0794F8FC01032810D084F86D
:102DE000FE7139462046FFF7E2FE2046FFF7C0FBA2
:102DF0001FB1022084F8FC0149E084F8FC5146E050
:102E000020461AE0FFF78EFF41E0CB88012B14D15A
:102E100090F8FC31022B02D0032B0ED104E082602B
:102E2000012200F1080114E00122011D11E090F8D7
:102E3000FC21022A04D0032A02D0FFF776FB26E009
:102E4000C560D0F8041209B10321C160022200F16B
:102E50000C01FFF780FB1AE004464888012816D1D0
:102E6000C4F804520BE0044690F8FC01022801D09B
:102E70000328C5D14888012809D1C4F80422D4F810
:102E800014028268204690472046FFF771FB3046C7
:102E9000BDE8F08170B50D46044628780026097912
:102EA000C0F34110012806D06878A0B301281FD0D4
:102EB00003283FD107E0D4F814022946826820464F
:102EC0009047002070BD94F8FC01022817D0032819
:102ED0002CD1688828B921B1802902D02046FFF77B
:102EE000A3FED4F81402294682682046904713E0D6
:102EF00094F8FC01022802D0032817D103E0C9B1DD
:102F000080291BD116E06888A0B9480604D0204665
:102F1000FFF7ECFCE5E703E02046FFF729FB09E0BB
:102F200094F8FC01022807D003280BD0294620463C
:102F3000FFF7FBFA304670BD4806FBD02046FFF78E
:102F400073FEF7E7080601F07F0004EB001501D5DA
:102F5000143501E005F582752046FFF7BDFD00B18F
:102F600001202860022229462046FFF7F4FAE1E713
:102F700070B5054690F8FC010C4603280DD1207968
:102F800001280AD8D5F81402826828469047E088BC
:102F900030B92846FFF7ECFA02E02846FFF7C5FAF9
:102FA000002070BD30B54C781D4B01220D78AA4031
:102FB000012CD0F81C4818D044EA0242C0F81C2862
:102FC0000A7800EB4210D0F8002B12040BD4D0F892
:102FD000002B0C89C4F30A042243C97843EA8141D7
:102FE0000A43C0F8002B002030BD92B21443C0F851
:102FF0001C480C7800EB4410D0F800291204F2D4DD
:10300000D0F800290D89C5F30A052A43C978890437
:1030100041EA84510A431A43C0F80029E3E700005B
:1030200000800010D0F800196FF30A01C0F80019F1
:10303000D0F80818C1F34101022905D1D0F80019D0
:1030400041F00301C0F80019D0F8041841F4807170
:10305000C0F804180020704770B50446049D069916
:103060000D9801290CD0E06840F04000E060204657
:1030700000F028F84FF48030A063012D16D01DE039
:10308000A16B21F48031A163E1680D4A1140E16038
:10309000E16821F44011E160012803D1E06840F4C7
:1030A0008010E060204600F00DF8E6E7A06840F0F0
:1030B0000600A060A06840F02000A060002070BD65
:1030C000BFFFBDFF01220C4902E0521C8A420BD80F
:1030D0000369002BF9DA026942F001020261012260
:1030E00004E0521C8A4201D9032070470369DB07C0
:1030F000F7D1002070470000400D0300F0B50D46E9
:1031000004464F780126F206D3002D49287804EBB7
:103110004010012F14D0D0F8007B27F40047C0F8EE
:10312000007B287804EB4010C0F8002B287804EBD3
:103130004010C0F8003B01202A7804EB42122BE03B
:10314000D0F8007927F40047C0F80079287804EB1C
:103150004010C0F80029287804EB4010C0F800396E
:1031600001202A7804EB421202E0401C884211D868
:10317000D2F808395B00F8D41021204600F024FB77
:10318000D4F81C0829788E40B1B2884314E0401C62
:10319000884201D90320F0BDD2F8083BDB06F6D403
:1031A000D4F8040840F48060C4F80408D4F81C087B
:1031B00029788E4020EA0640C4F81C080020F0BDA3
:1031C000400D030010B5D0F8041821F00201C0F83A
:1031D00004180320FDF7BCF9002010BD10B5D0F88D
:1031E000041841F00201C0F804180320FDF7B0F9FB
:1031F000002010BD2DE9F0470E460446DDE90A0A1D
:103200000025DDF83C80089F5FEA0801A16B11D022
:1032100041F40021A1634FF00009C4F8009ED4F8E6
:103220000018C4F80018012807D0D4F8000840F0AE
:10323000030007E041F40011ECE7D4F800080BB1FB
:1032400040F00100C4F800081021204600F0BCFA4C
:10325000204600F0A9FA4846C4F81098C4F814981B
:103260004FF0FF31C4F81818C4F81C984FF0904C78
:10327000FF230FE004EB4511D1F80029002A02DA00
:10328000C1F800C901E0C1F80009C1F81009C1F88E
:1032900008396D1CAE42EDD800210FE004EB41125D
:1032A000D2F8005B002D02DAC2F800CB01E0C2F8D0
:1032B000000BC2F8100BC2F8083B491C8E42EDD837
:1032C000D4F8101821F48071C4F81018012F0AD115
:1032D0001449C4F83018D4F83018134A1143C4F80C
:1032E0003018D4F83018A0616FF0804060611FB9C9
:1032F000A06940F01000A061A0690C490843A061DA
:10330000BAF1000F03D0A06940F00800A061B8F145
:10331000010F03D1A06906490843A0610020BDE860
:10332000F0870000000180000300010000383C80AD
:1033300004000040816821F0010181600020704795
:1033400030B54D784D4C0B7800EB4313012D28D050
:10335000D3F8105B6FF31205C3F8105B0B7800EB2A
:103360004313D3F8105B2540C3F8105B4B690BB1D6
:103370008B684B610B7800EB4313D3F8104B44F48C
:103380000024C3F8104B0B7800EB4313D3F8104B19
:103390008D68C5F312052C43C3F8104B012A5CD08D
:1033A00061E04D69002DD3F810593BD06FF3120541
:1033B000C3F810590B7800EB4313D3F8105925408C
:1033C000C3F810594C698B689C4200D94B610B784B
:1033D00000EB4313D3F8104944F40024C3F8104918
:1033E0000B7800EB4313D3F810494D69C5F3120570
:1033F00054EA0504C3F810490B7800EB4313D3F8E3
:10340000004944F00444C3F80049012A1ED04A6927
:1034100012B3D0F834280B78012199400A43C0F840
:10342000342829E02540C3F810590B7800EB4313EA
:10343000D3F8104944F40024C3F810490B7800EB8A
:103440004313D3F810496FF31204D3E70A690978DC
:1034500000EB4110C0F814290EE00B7800EB431389
:10346000CA68C3F8142B097800EB4110D0F8001B90
:1034700041F00441C0F8001B002030BDFFFF07E011
:103480000023C0F8103BD0F8103B43F40023C0F8F1
:10349000103BD0F8103B43F01803C0F8103BD0F8B5
:1034A000103B43F0C043C0F8103B012905D1C0F8E0
:1034B000142B4FF08021C0F8001B002070474B7880
:1034C0000A7800EB4212012B0BD0D2F8003B23F418
:1034D0000013C2F8003BCA78032A17D0022A15D07D
:1034E0001DE0D2F8003923F40013C2F80039CA787D
:1034F000032A01D0022A12D1097800EB4110D0F83A
:10350000001941F08051C0F8001908E0097800EB7B
:103510004110D0F8001B41F08051C0F8001B002082
:1035200070474B780A7800EB4212012B14D0D2F886
:10353000003B002B05DBD2F8003B23F08043C2F8B0
:10354000003B097800EB4110D0F8001B41F400115A
:10355000C0F8001B00207047D2F80039002B05DBB3
:10356000D2F8003923F08043C2F80039097800EB23
:103570004110D0F8001941F40011C0F80019E9E732
:1035800078B54E786FF06045834C0B7800EB4313B1
:10359000012E2FD0D3F8106B6FF31206C3F8106B07
:1035A0000B7800EB4313D3F8106B2640C3F8106B75
:1035B0004B69002B7DD08C6823445B1EB3FBF4F376
:1035C0009BB20C7800EB4414D4F8106B05EAC345A9
:1035D0002E43C4F8106B0C7800EB4414D4F8105B45
:1035E0008E685E43C6F312031D43C4F8105B012AC4
:1035F00073D0B2E04E6966B3D3F810696FF3120668
:10360000C3F810690B7800EB4313D3F81069264018
:10361000C3F810694C698B681C44641EB4FBF3F357
:1036200005EAC3440B7800EB4313D3F810592C433D
:10363000C3F810490B7800EB4313D3F810494D69D8
:10364000C5F312052C43C3F81049CB78012B16D0D3
:1036500027E0D3F810592540C3F810590B7800EB38
:103660004313D3F8104944F40024C3F810490B78ED
:1036700000EB4313D3F810496FF312040FE00B78FB
:1036800000EB4313D3F8104924F0C044C3F81049A9
:103690000B7800EB4313D3F8104944F00054C3F8FF
:1036A0001049012A12D0CB78012B17D04B692BB3CC
:1036B00000E037E0D0F834380D780124AC402343E3
:1036C000C0F83438CB78012B08D017E00C7800EB29
:1036D00044140B69C4F81439F4E738E0D0F808381A
:1036E000DB050B7800EB4313D3F8004902D444F018
:1036F000005401E044F08054C3F800490B7800EB1B
:103700004313D3F8004944F00444C3F80049CB788C
:10371000012B3ED100928A8A93B20A78C96800F0E0
:10372000E7F836E00B7800EB4313D3F8104B8D68C5
:10373000C5F312052C43C3F8104B0B7800EB431371
:10374000D3F8104B44F40024C3F8104B4FE70B7828
:1037500000EB4313CA68C3F8142BCA78012A0FD1AF
:10376000D0F80828D2050A7800EB4212D2F8003BC4
:1037700002D443F0005301E043F08053C2F8003B11
:10378000097800EB4110D0F8001B41F00441C0F86B
:10379000001B002078BD0000FFFF07E0816841F0BA
:1037A0000101816000207047002110220261054A5A
:1037B000491C914201D9032070470369DB06F7D405
:1037C00000207047400D03000022202343EA8111AE
:1037D00001610549521C8A4201D9032070470369DF
:1037E0009B06F7D400207047400D03000021D0F85D
:1037F000082812F0060F15D0D0F80828C2F34102AD
:10380000012A0CD0D0F80828C2F34102032A06D0BE
:10381000D0F80808C0F34100022802D002E00321DA
:1038200000E0022108467047406900F0010070473F
:10383000D0F81818D0F81C08084080B27047D0F8AB
:103840001818D0F81C080840000C7047D0F8103841
:10385000D0F83428CA4002F0010243EAC21200EB59
:103860004110D0F808091040704700EB4111D1F821
:10387000081BD0F814080840704741698069084067
:10388000704710B503460020D21C920803F5805300
:1038900003E01C6841F8044B401C9042F9D30846F1
:1038A00010BD10B5C26822F0C042C260012901D02B
:1038B00021B107E0C16841F0005102E0C16841F068
:1038C0008041C1603220FCF743FE002010BDD0F8DB
:1038D000002822F4FE62C0F80028D0F800284FF437
:1038E000FE6303EA01110A43C0F800280020704774
:1038F00030B50024039D6DB9DB1C9B0800EB023042
:1039000000F5805004E000BF51F8042B0260641CF5
:103910009C42F9D3002030BD026813689B0606D58F
:1039200052680A70816A491E816200207047012036
:10393000704700680268120602D541600020704797
:1039400001207047FEE700000148FEF756B900006D
:1039500038230020FEE700000FB4054B10B503A983
:10396000044A029800F022F810BC5DF814FB000035
:10397000DD3B00082C01002002E008C8121F08C12E
:10398000002AFAD170477047002001E001C1121FE0
:10399000002AFBD1704700220121435C491C1A44D4
:1039A0000629FADB82710021C17170472DE9FF4FB2
:1039B0008BB09A460F460546002606E025280BD018
:1039C00052460D9990476D1C761C28780028F5D139
:1039D0000FB03046BDE8F08F0024A04601226049B8
:1039E00000E0044315F8013F203B02FA03F00842CF
:1039F000F7D128782E2817D115F8010F44F00404C8
:103A00002A280ED06FF02F022878A0F13001092962
:103A10000AD808EB880102EB410100EB01086D1C9C
:103A2000F2E757F8048B6D1C287869283ED006DC35
:103A30000028CDD063280BD0642804D136E0732849
:103A400010D075284BD052460D999047761C85E0D2
:103A500017F8040B8DF8000000208DF80100E946EE
:103A6000012003E057F8049B4FF0FF3061074FF04F
:103A7000000401D40AE0641C44450DDA8442FADBF8
:103A800019F804100029F6D106E0641C8442FCDB1E
:103A900019F804100029F8D1264404E019F8010BA4
:103AA00052460D999047641EF8D257E001CF4FF06F
:103AB0000A0B002802DA40422D2102E0210504D53C
:103AC0002B218DF82410012103E0E10705D02021EE
:103AD000F7E70DF1200908910CE00021F9E701CF8B
:103AE0004FF00A0BF9E75946FCF7ADFB01F1300244
:103AF00009F8012D0028F6D1ADEB090000F1200BEB
:103B0000600701D44FF00108D84502DDA8EB0B0097
:103B100000E000208046002406E009A85246005D2F
:103B20000D999047641C761C08988442F5DB04E0EC
:103B3000302052460D999047761CB8F10001A8F14B
:103B40000108F5DC05E019F8010B52460D99904784
:103B5000761CBBF10001ABF1010BF4DC6D1C34E70A
:103B60000928010070B50C468AB205460146054891
:103B7000FCF741FCA2B22946BDE870400248FCF7C0
:103B80003ABC0000F80200207402002010B5124C6C
:103B9000002240B1012808D021460228C96807D078
:103BA000032809D106E0A26006E00120A06003E03E
:103BB0000A3100E00A39E160E068002801DAE260D9
:103BC00003E0782801DD7820E060217B207A00F096
:103BD00027F9E06810BD00005800002010B5044629
:103BE000C1B20248FCF73EFC204610BD7402002022
:103BF00010B5002821D0114B0022001F196803E0E6
:103C0000814203D80A4649680029F9D152B11368A4
:103C1000841A9C4204D1006818441060104602E0E7
:103C2000506000E0186039B102680B1A934203D16A
:103C30000B681A4402604968416010BD30010020E1
:103C40002DE9F04100240E4F012600BF06FA04F5CD
:103C5000A9B23846FCF766FD30B1641C042CF5DBD4
:103C60004FF0FF30BDE8F0811420FCF771FCA9B2E1
:103C70003846FCF757FD0028F9D02046F2E700004F
:103C80000008024030B585B000244FF48065CDE9CE
:103C90000154234B0394A3F58062A2F5B87101F19E
:103CA000C00000950494FCF7E3FB1E48FCF73FFBC3
:103CB000CDE901541C4B0394A3F58062A2F50F617A
:103CC00001F16C0000950494FCF7D2FB15482C30F0
:103CD000FCF72DFBCDE90154144B15490394A3F5D2
:103CE000806201F5AC7000950494FCF7C1FB0D48AF
:103CF0005830FCF71CFBCDE901540A490D4B8039C3
:103D00000394A3F5806201F5827000950494FCF79A
:103D1000AFFB05B00348BDE830408430FCF707BB7B
:103D20002407002074020020240F00202417002004
:103D300074010020241F0020642190FBF1F26FF039
:103D40001801514300EB81030A2110B590FBF1F0FB
:103D500093FBF1F40121104600F088F82046BDE8FD
:103D60001040022100F082B8FCF7F4FCFEF742F9A3
:103D7000FDF786FFFEF750F8FEF728F8FDF74EFF37
:103D8000FDF7E8FFFEF794F8FEF7B8F8FEF76AF8DB
:103D90000748FDF723FDFFF775FF00BFFFF750FF52
:103DA000FFF7F4FEFFF7C8FF3C20FCF7D1FBF5E777
:103DB00038010020F0B50B30154D20F0070100242C
:103DC000144A0FE003688B420BD38B4205D95E1A6D
:103DD00043184768C3E9006700E04368136002C006
:103DE00004E0021D10680028ECD12046002802D112
:103DF000286808B10020F0BD064A07481060074A4D
:103E0000121A22F00702C0E9002401202860D7E737
:103E10003401002030010020942B0020904B002022
:103E200000B589B08DF820000F488DF8211055217C
:103E300001700121417081700221C170A0F1140153
:103E4000BDF8200008834969ADF804000091684678
:103E5000FFF7A1FDAA208DF8080009216846FFF7A9
:103E600081FE09B0012000BD742B00202DE9F04136
:103E70004FF400746500244E07464FF48078012902
:103E800010D002291BD003293CD1002241463046E4
:103E9000FCF74DFC002221463046FCF748FC01228D
:103EA000294618E0002221463046FCF740FC00225B
:103EB00029463046FCF73BFC012241460BE000223C
:103EC00029463046FCF733FC002241463046FCF7D9
:103ED0002EFC012221463046FCF729FC0024DFF8A5
:103EE0002C80012505FA04F018F80710014281B270
:103EF00001D0012200E000223046FCF718FC641CCF
:103F0000082CEFDBBDE8F08100100240100000201B
:103F10000000000000000000010203040607080979
:103F20000000000001020304483F000800000020D8
:103F300038010000D40200082040000838010020A9
:103F4000586A000088390008111324F432017210F5
:103F500040113F065B4F666D7D077F6F777C395E52
:103F6000797113A9251B08D9041AE504130D261B22
:103F70000839041A890C1AB504170403090412013C
:103F80003202164083042B572D0201020351011304
:103F900013C5271B088F041AED04819A830C811A1C
:103FA000AD1469041AB9041409022213010125E0B1
:103FB000320904150103010215092111011401221E
:103FC0004A160705810304220A7912314B0A06902A
:103FD0002987100A05010902A1010901A11008059C
:103FE000091901290315180F25019503750181028F
:103FF000950175058101202817300931093815818F
:10400000257F750895038106C0093C05FF09012934
:10401000E00E75019502B12275069501B101C0004F
:040000050800018965
:00000001FF
